00Banco EC S.A.                                                                                       Banco EC S.A.                                                                                       050520222904202225042022                                    33264668000103ENDEREÇO DO EMISSOR - RUA,N,COMPLEMENTO,CIDADE,ESTADO                                                                                                                                                                                                                                                                                                                                                                                                                                                                                                                                                                                                                                                                                               
104998**.******.1615  FABILANIA SANDES                                  Av. Tambore                                                                                         267   Complemento                   Alphaville                                                                      Barueri                                                     DF7150523590125383720000000090125383725DMS101R$   05052022                                                                                                                                                                                                                                                                                        10006826800 33-700227100013022115713022115-7   99958773414     682680                    0      0      0      0              00pfc.412265@conductor.com.br                       000000339889760000204655939799110090125383725010103399.39795  91100.901254  38372.501015  8  8976000020465501103889180000000000000000000                                                                                                                                                                                                                                                                                                                                                                                                                                                                                                                     
1100000003500000000000000000000000000350000000000000000545% a.m.00000000000545% a.m.0000000000000000000000010506% a.a.                                  26052022000000000193950000000001939500000000000000000000000097970000002700000000000345% a.m.00000000000545% a.m.00000000000200% a.m.00000000000000% a.m.00001      00038      00000000000002% a.m.0054500545001130011200000001110060800608001760017500174001741050602365023350890401444000000504040505050406Normal                                                                                              SS05042022000000000000000000000000646500000000006465                                                                                                                                                                                                                                                                                                                                                                                                                                                                                                                                                                                                                                                                                                                                                                                                                                                                                                                                                                 
120000000012094500000000120945000000002046550000000020465500000000030698000000001209450000000000000000000000185120000000000000000000000000000000000000000000000000000000000000000000000000000000000000A531FN100000000000000000000000000000000000000000000000000000000000000000000000000000000000000000000000000000000000000000000000000000000000000000000000000000000000000000000000000000000000000                                                                                                                                                                                                                                                                    00000000019395                                                                                                                                                                                                                                                                                                                                                                                                                                                                                                                                                                                                                                                                                                                                                                                                                                                                       
1300000300000000000001EC ECOSY CREDITO    002000000000003EC ECOSY CREDITO                                                                                                                                                                                                                                                                                                                                                                                                                                                                                                                                                                                                                                                                                                                                                                                                                                                                                                                                                               
20FABILANIA SANDES                                  4998**.******.1615                                                                                                                                                                                                                                                                                                                                                                                                                                                                                                                                                                                                                                                                                                                                                                                                                                                                                                                                                                  
2109022022Parcela Lojista Visa Parc.3/6           DESINCHA LTDA                       00000000000000000000000064650000000000000000000000000000                                             0000000000000000000000055328   00000000000000   00000000000000BRL0000000000000034087005042022NN0000000000000001316355                                                                                                                                                                                                                                                                                                                                                                                                                                                                                                                                                                                                                                                                                                                        
2116022022Parcela Lojista Visa Parc.3/3           EPOCA COSMETICOS                    00000000000000000000000130700000000000000000000000000000                                             0000000000000000000000054469   00000000000000   00000000000000BRL0000000000000075676705042022NN0000000000000001316355                                                                                                                                                                                                                                                                                                                                                                                                                                                                                                                                                                                                                                                                                                                        
2126032022Compra a Vista                          MAJO BEAUTY CLUB                    00000000000000000000000060000000000000000000000000000000                                             0000000000000000000000050464   00000000000000   00000000000000BRL0000000000000020718728032022NN0000000000000001316355                                                                                                                                                                                                                                                                                                                                                                                                                                                                                                                                                                                                                                                                                                                        
2127032022Compra a Vista                          COCO BAMBU IGUATE                   00000000000000000000000082900000000000000000000000000000                                             0000000000000000000000050464   00000000000000   00000000000000BRL0000000000000051749428032022NN0000000000000001316355                                                                                                                                                                                                                                                                                                                                                                                                                                                                                                                                                                                                                                                                                                                        
2130032022Compra a Vista                          OSTERIA VICENZA                     00000000000000000000000070160000000000000000000000000000                                             0000000000000000000000049854   00000000000000   00000000000000BRL0000000000000052259931032022NN0000000000000001316355                                                                                                                                                                                                                                                                                                                                                                                                                                                                                                                                                                                                                                                                                                                        
2131032022Compra a Vista                          RESTAURANTE TORO                    00000000000000000000000140000000000000000000000000000000                                             0000000000000000000000049866   00000000000000   00000000000000BRL0000000000000039567001042022NN0000000000000001316355                                                                                                                                                                                                                                                                                                                                                                                                                                                                                                                                                                                                                                                                                                                        
2131032022Compra a Vista                          NHA LITA                            00000000000000000000000019000000000000000000000000000000                                             0000000000000000000000049866   00000000000000   00000000000000BRL0000000000000083094301042022NN0000000000000001316355                                                                                                                                                                                                                                                                                                                                                                                                                                                                                                                                                                                                                                                                                                                        
2102042022Compra a Vista                          MEATZ BURGER AN                     00000000000000000000000054000000000000000000000000000000                                             0000000000000000000000049741   00000000000000   00000000000000BRL0000000000000048460004042022NN0000000000000001316355                                                                                                                                                                                                                                                                                                                                                                                                                                                                                                                                                                                                                                                                                                                        
2102042022Compra a Vista                          PAO DE ACUCAR 1230 LAG              00000000000000000000000072400000000000000000000000000000                                             0000000000000000000000049741   00000000000000   00000000000000BRL0000000000000060151604042022NN0000000000000001316355                                                                                                                                                                                                                                                                                                                                                                                                                                                                                                                                                                                                                                                                                                                        
2102042022Compra a Vista                          BIG BOX SUPERMERCADOS               00000000000000000000000024810000000000000000000000000000                                             0000000000000000000000049741   00000000000000   00000000000000BRL0000000000000022200904042022NN0000000000000001316355                                                                                                                                                                                                                                                                                                                                                                                                                                                                                                                                                                                                                                                                                                                        
2102042022Compra a Vista                          AUTO POSTO LAGO NORTE               00000000000000000000000100000000000000000000000000000000                                             0000000000000000000000049741   00000000000000   00000000000000BRL0000000000000082218004042022NN0000000000000001316355                                                                                                                                                                                                                                                                                                                                                                                                                                                                                                                                                                                                                                                                                                                        
2103042022Compra a Vista                          PAG*DENGOCHOCOLATESSA               00000000000000000000000109800000000000000000000000000000                                             0000000000000000000000049741   00000000000000   00000000000000BRL0000000000000042864004042022NN0000000000000001316355                                                                                                                                                                                                                                                                                                                                                                                                                                                                                                                                                                                                                                                                                                                        
2104042022Pagamento Efetuado                                                          00000000120945000000000000000000000000000000000000000000                                             0000000000000000000000049327   00000000000000   00000000000000   0000000000000000000005042022NN0000000000000001316356                                                                                                                                                                                                                                                                                                                                                                                                                                                                                                                                                                                                                                                                                                                        
2105042022Compra a Vista                          PAO DE ACUCAR 1230 LAG              00000000000000000000000047000000000000000000000000000000                                             0000000000000000000000048477   00000000000000   00000000000000BRL0000000000000058327706042022NN0000000000000001316355                                                                                                                                                                                                                                                                                                                                                                                                                                                                                                                                                                                                                                                                                                                        
2105042022Compra a Vista                          MP *LU                              00000000000000000000000011270000000000000000000000000000                                             0000000000000000000000048477   00000000000000   00000000000000BRL0000000000000097818806042022NN0000000000000001316355                                                                                                                                                                                                                                                                                                                                                                                                                                                                                                                                                                                                                                                                                                                        
2106042022Compra a Vista                          DOCE MAISON BY ARIANE               00000000000000000000000087100000000000000000000000000000                                             0000000000000000000000048714   00000000000000   00000000000000BRL0000000000000056353707042022NN0000000000000001316355                                                                                                                                                                                                                                                                                                                                                                                                                                                                                                                                                                                                                                                                                                                        
2108042022Compra a Vista                          PAES E VINHOS                       00000000000000000000000019260000000000000000000000000000                                             0000000000000000000000049787   00000000000000   00000000000000BRL0000000000000031560611042022NN0000000000000001316355                                                                                                                                                                                                                                                                                                                                                                                                                                                                                                                                                                                                                                                                                                                        
2108042022Compra a Vista                          CASTALIA PADARIA                    00000000000000000000000051000000000000000000000000000000                                             0000000000000000000000049787   00000000000000   00000000000000BRL0000000000000068490411042022NN0000000000000001316355                                                                                                                                                                                                                                                                                                                                                                                                                                                                                                                                                                                                                                                                                                                        
2108042022Compra a Vista                          RESTAURANTE FAROFINA                00000000000000000000000040400000000000000000000000000000                                             0000000000000000000000049787   00000000000000   00000000000000BRL0000000000000084917811042022NN0000000000000001316355                                                                                                                                                                                                                                                                                                                                                                                                                                                                                                                                                                                                                                                                                                                        
2109042022Compra a Vista                          MAJO BEAUTY CLUB                    00000000000000000000000060000000000000000000000000000000                                             0000000000000000000000049787   00000000000000   00000000000000BRL0000000000000022275011042022NN0000000000000001316355                                                                                                                                                                                                                                                                                                                                                                                                                                                                                                                                                                                                                                                                                                                        
2109042022Compra a Vista                          PADOCA                              00000000000000000000000014560000000000000000000000000000                                             0000000000000000000000049787   00000000000000   00000000000000BRL0000000000000070380711042022NN0000000000000001316355                                                                                                                                                                                                                                                                                                                                                                                                                                                                                                                                                                                                                                                                                                                        
2110042022Compra a Vista                          AUTO POSTO LAGO NORTE               00000000000000000000000100000000000000000000000000000000                                             0000000000000000000000049787   00000000000000   00000000000000BRL0000000000000025765511042022NN0000000000000001316355                                                                                                                                                                                                                                                                                                                                                                                                                                                                                                                                                                                                                                                                                                                        
2110042022Compra a Vista                          PAES E VINHOS                       00000000000000000000000025080000000000000000000000000000                                             0000000000000000000000049787   00000000000000   00000000000000BRL0000000000000079245011042022NN0000000000000001316355                                                                                                                                                                                                                                                                                                                                                                                                                                                                                                                                                                                                                                                                                                                        
2111042022Compra a Vista                          VILLA TEVERE                        00000000000000000000000227650000000000000000000000000000                                             0000000000000000000000049882   00000000000000   00000000000000BRL0000000000000015513212042022NN0000000000000001316355                                                                                                                                                                                                                                                                                                                                                                                                                                                                                                                                                                                                                                                                                                                        
2114042022Compra a Vista                          BISCOITO MINEIRO                    00000000000000000000000056940000000000000000000000000000                                             0000000000000000000000049145   00000000000000   00000000000000BRL0000000000000063288118042022NN0000000000000001316355                                                                                                                                                                                                                                                                                                                                                                                                                                                                                                                                                                                                                                                                                                                        
2117042022Compra a Vista                          INGRESSO.COM                        00000000000000000000000029440000000000000000000000000000                                             0000000000000000000000049145   00000000000000   00000000000000BRL0000000000000016212618042022NN0000000000000001316355                                                                                                                                                                                                                                                                                                                                                                                                                                                                                                                                                                                                                                                                                                                        
2119042022Compra a Vista                          AUTO POSTO LAGO NORTE               00000000000000000000000100000000000000000000000000000000                                             0000000000000000000000049077   00000000000000   00000000000000BRL0000000000000027200920042022NN0000000000000001316355                                                                                                                                                                                                                                                                                                                                                                                                                                                                                                                                                                                                                                                                                                                        
2120042022Compra a Vista                          QUIOSQUE CERVEJEIRO                 00000000000000000000000012000000000000000000000000000000                                             0000000000000000000000048991   00000000000000   00000000000000BRL0000000000000014548122042022NN0000000000000001316355                                                                                                                                                                                                                                                                                                                                                                                                                                                                                                                                                                                                                                                                                                                        
2120042022Compra a Vista                          V CAFE EMBARQUE                     00000000000000000000000027000000000000000000000000000000                                             0000000000000000000000048991   00000000000000   00000000000000BRL0000000000000058890722042022NN0000000000000001316355                                                                                                                                                                                                                                                                                                                                                                                                                                                                                                                                                                                                                                                                                                                        
2121042022Compra a Vista                          PG *ALAN DO COCO                    00000000000000000000000026000000000000000000000000000000                                             0000000000000000000000048991   00000000000000   00000000000000BRL0000000000000041549422042022NN0000000000000001316355                                                                                                                                                                                                                                                                                                                                                                                                                                                                                                                                                                                                                                                                                                                        
2122042022Compra a Vista                          BELLA PRAIA 2                       00000000000000000000000040000000000000000000000000000000                                             0000000000000000000000048711   00000000000000   00000000000000BRL0000000000000034500125042022NN0000000000000001316355                                                                                                                                                                                                                                                                                                                                                                                                                                                                                                                                                                                                                                                                                                                        
2123042022Compra a Vista                          SUPERMERCADO EEM                    00000000000000000000000049530000000000000000000000000000                                             0000000000000000000000048711   00000000000000   00000000000000BRL0000000000000082222325042022NN0000000000000001316355                                                                                                                                                                                                                                                                                                                                                                                                                                                                                                                                                                                                                                                                                                                        
2123042022Compra a Vista                          JHONES ROLIM GOBB                   00000000000000000000000038000000000000000000000000000000                                             0000000000000000000000048711   00000000000000   00000000000000BRL0000000000000020173925042022NN0000000000000001316355                                                                                                                                                                                                                                                                                                                                                                                                                                                                                                                                                                                                                                                                                                                        
2123042022Compra a Vista                          PET SHOP 4 PATAS                    00000000000000000000000018900000000000000000000000000000                                             0000000000000000000000048711   00000000000000   00000000000000BRL0000000000000092911925042022NN0000000000000001316355                                                                                                                                                                                                                                                                                                                                                                                                                                                                                                                                                                                                                                                                                                                        
2124042022Compra a Vista                          JOZINEIDE S MENDE                   00000000000000000000000037000000000000000000000000000000                                             0000000000000000000000048711   00000000000000   00000000000000BRL0000000000000061334625042022NN0000000000000001316355                                                                                                                                                                                                                                                                                                                                                                                                                                                                                                                                                                                                                                                                                                                        
220000000012094500000000204655000000000000000000000000000000000000000000000000000000000000000000000000000000000000                                                                                                                                                                                                                                                                                                                                                                                                                                                                                                                                                                                                                                                                                                                                                                                                                                                                                                                      
23                                                                                                                                                      
23                                                                                                                                                      
23                                                                                                                                                      
23                                                                                                                                                      
23                                                                                                                                                      
23                                                                                                                                                      
240000000000000000000000000000Parcelamento                                                                                        
250000000000000003450000000000649600000000102600000000000000000000000708980000000014179600000000001337570000000708980000000000062859  
250000000000000003450000000000680700000000135300000000000000000000000541510000000016245300000000001505040000000541510000000000096353  
250000000000000003450000000000710400000000165800000000000000000000000441080000000017643200000000001605470000000441080000000000116439  
250000000000000003450000000000738400000000195200000000000000000000000374190000000018709500000000001672360000000374190000000000129817  
250000000000000003450000000000767000000000224300000000000000000000000326480000000019588800000000001720070000000326480000000000139359  
250000000000000003450000000000795900000000253200000000000000000000000290750000000020352500000000001755800000000290750000000000146505  
250000000000000003450000000000825300000000282200000000000000000000000263020000000021041600000000001783530000000263020000000000152051  
250000000000000003450000000000857200000000311500000000000000000000000240890000000021680100000000001805660000000240890000000000156477  
250000000000000003450000000000887500000000340500000000000000000000000222820000000022282000000000001823730000000222820000000000160091  
250000000000000003450000000000918200000000369800000000000000000000000207810000000022859100000000001838740000000207810000000000163093  
250000000000000003450000000000951700000000399400000000000000000000000195150000000023418000000000001851400000000195150000000000165625  
250000000000000003450000000000978800000000424900000000000000000000000184300000000023959000000000001862250000000184300000000000167795  
250000000000000003450000000001004000000000446800000000000000000000000174890000000024484600000000001871660000000174890000000000169677  
250000000000000003450000000001024800000000466000000000000000000000000166670000000025000500000000001879880000000166670000000000171321  
250000000000000003450000000001045900000000482900000000000000000000000159430000000025508800000000001887120000000159430000000000172769  
250000000000000003450000000001062400000000497900000000000000000000000153000000000026010000000000001893550000000153000000000000174055  
250000000000000003450000000001076600000000511200000000000000000000000147260000000026506800000000001899290000000147260000000000175203  
250000000000000003450000000001090900000000523300000000000000000000000142110000000027000900000000001904440000000142110000000000176233  
250000000000000003450000000001105300000000534100000000000000000000000137460000000027492000000000001909090000000137460000000000177163  
250000000000000003450000000001115000000000543900000000000000000000000133250000000027982500000000001913300000000133250000000000178005  
250000000000000003450000000001127100000000552900000000000000000000000129410000000028470200000000001917140000000129410000000000178773  
250000000000000003450000000001136900000000561100000000000000000000000125910000000028959300000000001920640000000125910000000000179473  
250002000000000003450000000000649600000000102600000000000000000000000007089800000014179600000000001337570000000708980000000000062859  
250003000000000003450000000000680700000000135300000000000000000000000005415100000016245300000000001505040000000541510000000000096353  
250004000000000003450000000000710400000000165800000000000000000000000004410800000017643200000000001605470000000441080000000000116439  
250005000000000003450000000000738400000000195200000000000000000000000003741900000018709500000000001672360000000374190000000000129817  
250006000000000003450000000000767000000000224300000000000000000000000003264800000019588800000000001720070000000326480000000000139359  
250007000000000003450000000000795900000000253200000000000000000000000002907500000020352500000000001755800000000290750000000000146505  
250008000000000003450000000000825300000000282200000000000000000000000002630200000021041600000000001783530000000263020000000000152051  
250009000000000003450000000000857200000000311500000000000000000000000002408900000021680100000000001805660000000240890000000000156477  
250010000000000003450000000000887500000000340500000000000000000000000002228200000022282000000000001823730000000222820000000000160091  
250011000000000003450000000000918200000000369800000000000000000000000002078100000022859100000000001838740000000207810000000000163093  
250012000000000003450000000000951700000000399400000000000000000000000001951500000023418000000000001851400000000195150000000000165625  
250013000000000003450000000000978800000000424900000000000000000000000001843000000023959000000000001862250000000184300000000000167795  
250014000000000003450000000001004000000000446800000000000000000000000001748900000024484600000000001871660000000174890000000000169677  
250015000000000003450000000001024800000000466000000000000000000000000001666700000025000500000000001879880000000166670000000000171321  
250016000000000003450000000001045900000000482900000000000000000000000001594300000025508800000000001887120000000159430000000000172769  
250017000000000003450000000001062400000000497900000000000000000000000001530000000026010000000000001893550000000153000000000000174055  
250018000000000003450000000001076600000000511200000000000000000000000001472600000026506800000000001899290000000147260000000000175203  
250019000000000003450000000001090900000000523300000000000000000000000001421100000027000900000000001904440000000142110000000000176233  
250020000000000003450000000001105300000000534100000000000000000000000001374600000027492000000000001909090000000137460000000000177163  
250021000000000003450000000001115000000000543900000000000000000000000001332500000027982500000000001913300000000133250000000000178005  
250022000000000003450000000001127100000000552900000000000000000000000001294100000028470200000000001917140000000129410000000000178773  
250023000000000003450000000001136900000000561100000000000000000000000001259100000028959300000000001920640000000125910000000000179473  
28000000000000000000000000000000000000000000000000000000000000000000000000000000000638000000000000000000000000000000000000000000000000000000000000000000000000000000000000000000000000000000000000000000000000000000                                                                                                                                                                                                                                                I000000000000000000000000000000000000000000                                                                                                                                                                                                                                                                                                                                                                                                                                                                                                                         
29                                                                                                                                                                                                                                                                                                                                                                                                                                                                                                                                                                                                                                                                                                                                                                                                                                                                                                                                                                                                                                        
104998**.******.0083  SAYMONT LEITAO                                    Av. Tambore                                                                                         267   Complemento                   Alphaville                                                                      Barueri                                                     RS9830000090125709810000000090125709817DMS101R$   05052022                                                                                                                                                                                                                                                                                        10006610990 33-700227100013022115713022115-7   99960096025     661099                    0      0      0      0              00pfc.399039@conductor.com.br                       000000339289760000367624939799110090125709817010103399.39795  91100.901254  70981.701017  2  8976000036762401103889180000000000000000000                                                                                                                                                                                                                                                                                                                                                                                                                                                                                                                     
1100000002000000000000000000000000000200000000000000000545% a.m.00000000000545% a.m.0000000000000000000000010506% a.a.                                  26052022000000003868100000000053861000000000000000000000000175980000002700000000000345% a.m.00000000000545% a.m.00000000000200% a.m.00000000000000% a.m.00001      00038      00000000000002% a.m.0054500545001130011200000001110060800608001760017500174001741050602365023350890401444000000504040505050406Normal                                                                                              SS05042022000000000000000000000008569900000000064966                                                                                                                                                                                                                                                                                                                                                                                                                                                                                                                                                                                                                                                                                                                                                                                                                                                                                                                                                                 
120000000032131100000000321311000000003676240000000036762400000000055144000000003213110000000000000000000000271189000000000000000000000000000000000000000000000000000000000000000000000000000000000000A521FN100000000000000000000000000000000000000000000000000000000000000000000000000000000000000000000000000000000000000000000000000000000000000000000000000000000000000000000000000000000000000                                                                                                                                                                                                                                                                    00000000538610                                                                                                                                                                                                                                                                                                                                                                                                                                                                                                                                                                                                                                                                                                                                                                                                                                                                       
1300000300000000000001EC ECOSY CREDITO    002000000000003EC ECOSY CREDITO                                                                                                                                                                                                                                                                                                                                                                                                                                                                                                                                                                                                                                                                                                                                                                                                                                                                                                                                                               
20SAYMONT LEITAO                                    4998**.******.0083                                                                                                                                                                                                                                                                                                                                                                                                                                                                                                                                                                                                                                                                                                                                                                                                                                                                                                                                                                  
2102022022Parcela Lojista Visa Parc.3/10          PARC=110OPTICA E RELOJOAR           00000000000000000000000198000000000000000000000000000000                                             0000000000000000000000055444   00000000000000   00000000000000BRL0000000000000040183405042022NN0000000000000001271556                                                                                                                                                                                                                                                                                                                                                                                                                                                                                                                                                                                                                                                                                                                        
2104022022Parcela Lojista Visa Parc.3/6           MC CALCADOS                         00000000000000000000000119960000000000000000000000000000                                             0000000000000000000000055670   00000000000000   00000000000000BRL0000000000000089435705042022NN0000000000000001271556                                                                                                                                                                                                                                                                                                                                                                                                                                                                                                                                                                                                                                                                                                                        
2104022022Parcela Lojista Visa Parc.3/12          MP*MERCADOPAGO                      00000000000000000000000068670000000000000000000000000000                                             0000000000000000000000055670   00000000000000   00000000000000BRL0000000000000081303805042022NN0000000000000001271555                                                                                                                                                                                                                                                                                                                                                                                                                                                                                                                                                                                                                                                                                                                        
2108022022Parcela Lojista Visa Parc.3/4           PANVEL FILIAL 85                    00000000000000000000000030210000000000000000000000000000                                             0000000000000000000000055552   00000000000000   00000000000000BRL0000000000000082656105042022NN0000000000000001271556                                                                                                                                                                                                                                                                                                                                                                                                                                                                                                                                                                                                                                                                                                                        
2110032022Parcela Lojista Visa Parc.2/10          PARC=110BRASOPTICA                  00000000000000000000000108200000000000000000000000000000                                             0000000000000000000000052592   00000000000000   00000000000000BRL0000000000000072573305042022NN0000000000000001271556                                                                                                                                                                                                                                                                                                                                                                                                                                                                                                                                                                                                                                                                                                                        
2117032022Parcela Lojista Visa Parc.2/2           1556 PM                             00000000000000000000000107350000000000000000000000000000                                             0000000000000000000000053845   00000000000000   00000000000000BRL0000000000000038786505042022NN0000000000000001271556                                                                                                                                                                                                                                                                                                                                                                                                                                                                                                                                                                                                                                                                                                                        
2119032022Parcela Lojista Visa Parc.2/4           PARC=104LARANJA LIMA                00000000000000000000000049990000000000000000000000000000                                             0000000000000000000000053296   00000000000000   00000000000000BRL0000000000000024524005042022NN0000000000000001271556                                                                                                                                                                                                                                                                                                                                                                                                                                                                                                                                                                                                                                                                                                                        
2119032022Parcela Lojista Visa Parc.2/6           LOJAS VITO                          00000000000000000000000060800000000000000000000000000000                                             0000000000000000000000053296   00000000000000   00000000000000BRL0000000000000098292605042022NN0000000000000001271556                                                                                                                                                                                                                                                                                                                                                                                                                                                                                                                                                                                                                                                                                                                        
2125032022Compra a Vista                          PAG*RAQUELMAROSOME                  00000000000000000000000018000000000000000000000000000000                                             0000000000000000000000050464   00000000000000   00000000000000BRL0000000000000072402928032022NN0000000000000001271556                                                                                                                                                                                                                                                                                                                                                                                                                                                                                                                                                                                                                                                                                                                        
2128032022Pagamento Efetuado                                                          00000000321311000000000000000000000000000000000000000000                                             0000000000000000000000050165   00000000000000   00000000000000   0000000000000000000029032022NN0000000000000001271556                                                                                                                                                                                                                                                                                                                                                                                                                                                                                                                                                                                                                                                                                                                        
2129032022Compra a Vista                          RAQUEL MAROSO                       00000000000000000000000018000000000000000000000000000000                                             0000000000000000000000050294   00000000000000   00000000000000BRL0000000000000087422930032022NN0000000000000001271556                                                                                                                                                                                                                                                                                                                                                                                                                                                                                                                                                                                                                                                                                                                        
2129032022Compra a Vista                          ASAAS*EBPOS - ESCOLA DE P           00000000000000000000000350000000000000000000000000000000                                             0000000000000000000000050294   00000000000000   00000000000000BRL0000000000000066681531032022NN0000000000000001271555                                                                                                                                                                                                                                                                                                                                                                                                                                                                                                                                                                                                                                                                                                                        
2129032022Compra a Vista                          SOCIEDADE BIBLICA DO B              00000000000000000000000645800000000000000000000000000000                                             0000000000000000000000050294   00000000000000   00000000000000BRL0000000000000072140831032022NN0000000000000001271555                                                                                                                                                                                                                                                                                                                                                                                                                                                                                                                                                                                                                                                                                                                        
2129032022Parcela Lojista Visa Parc.1/3           CPAD        *CPAD                   00000000000000000000000044050000000000000000000000000000                                             0000000000000000000000050294   00000000000000   00000000000000BRL0000000000000051969931032022NN0000000000000001271555                                                                                                                                                                                                                                                                                                                                                                                                                                                                                                                                                                                                                                                                                                                        
2130032022Compra a Vista                          RAQUEL MAROSO 01846402026           00000000000000000000000023000000000000000000000000000000                                             0000000000000000000000049854   00000000000000   00000000000000BRL0000000000000032341931032022NN0000000000000001271556                                                                                                                                                                                                                                                                                                                                                                                                                                                                                                                                                                                                                                                                                                                        
2130032022Compra a Vista                          PAG*REDEPOSTOSBOAVIST               00000000000000000000000200000000000000000000000000000000                                             0000000000000000000000049854   00000000000000   00000000000000BRL0000000000000051657731032022NN0000000000000001271556                                                                                                                                                                                                                                                                                                                                                                                                                                                                                                                                                                                                                                                                                                                        
2130032022Compra a Vista                          LOJAS VITO                          00000000000000000000000143900000000000000000000000000000                                             0000000000000000000000049854   00000000000000   00000000000000BRL0000000000000066379731032022NN0000000000000001271556                                                                                                                                                                                                                                                                                                                                                                                                                                                                                                                                                                                                                                                                                                                        
2101042022Compra a Vista                          FARMACIA S JOAO M                   00000000000000000000000095790000000000000000000000000000                                             0000000000000000000000049741   00000000000000   00000000000000BRL0000000000000041198104042022NN0000000000000001271556                                                                                                                                                                                                                                                                                                                                                                                                                                                                                                                                                                                                                                                                                                                        
2102042022Compra a Vista                          RONALDO SUPERMERCADOS               00000000000000000000000045000000000000000000000000000000                                             0000000000000000000000049741   00000000000000   00000000000000BRL0000000000000058977804042022NN0000000000000001271556                                                                                                                                                                                                                                                                                                                                                                                                                                                                                                                                                                                                                                                                                                                        
2103042022Compra a Vista                          ENEDIR GERALDO SIGNORI              00000000000000000000000270110000000000000000000000000000                                             0000000000000000000000049741   00000000000000   00000000000000BRL0000000000000081426504042022NN0000000000000001271556                                                                                                                                                                                                                                                                                                                                                                                                                                                                                                                                                                                                                                                                                                                        
2104042022Compra a Vista                          PAG*RAQUELMAROSOME                  00000000000000000000000018000000000000000000000000000000                                             0000000000000000000000049327   00000000000000   00000000000000BRL0000000000000067613205042022NN0000000000000001271556                                                                                                                                                                                                                                                                                                                                                                                                                                                                                                                                                                                                                                                                                                                        
2105042022Compra a Vista                          FARMACIA S JOAO M                   00000000000000000000000095790000000000000000000000000000                                             0000000000000000000000048477   00000000000000   00000000000000BRL0000000000000048429006042022NN0000000000000001271556                                                                                                                                                                                                                                                                                                                                                                                                                                                                                                                                                                                                                                                                                                                        
2107042022Compra a Vista                          AMAZON.COM.BR DIGITAL AMA           00000000000000000000000015210000000000000000000000000000                                             0000000000000000000000049309   00000000000000   00000000000000BRL0000000000000064024811042022NN0000000000000001271555                                                                                                                                                                                                                                                                                                                                                                                                                                                                                                                                                                                                                                                                                                                        
2108042022Compra a Vista                          MERCADO TRADICAO                    00000000000000000000000050690000000000000000000000000000                                             0000000000000000000000049787   00000000000000   00000000000000BRL0000000000000059865211042022NN0000000000000001271556                                                                                                                                                                                                                                                                                                                                                                                                                                                                                                                                                                                                                                                                                                                        
2108042022Compra a Vista                          DISTRIBUIDORA DE ALIME              00000000000000000000000111860000000000000000000000000000                                             0000000000000000000000049787   00000000000000   00000000000000BRL0000000000000075426611042022NN0000000000000001271556                                                                                                                                                                                                                                                                                                                                                                                                                                                                                                                                                                                                                                                                                                                        
2108042022Compra a Vista                          DISTRIBUIDORA DE ALIME              00000000000000000000000088960000000000000000000000000000                                             0000000000000000000000049787   00000000000000   00000000000000BRL0000000000000083056111042022NN0000000000000001271556                                                                                                                                                                                                                                                                                                                                                                                                                                                                                                                                                                                                                                                                                                                        
2108042022Compra a Vista                          MARLENE OLIVEIRA                    00000000000000000000000048090000000000000000000000000000                                             0000000000000000000000049787   00000000000000   00000000000000BRL0000000000000093112711042022NN0000000000000001271556                                                                                                                                                                                                                                                                                                                                                                                                                                                                                                                                                                                                                                                                                                                        
2108042022Parcela Lojista Visa Parc.1/2           MERCADO TRADICAO                    00000000000000000000000177120000000000000000000000000000                                             0000000000000000000000049787   00000000000000   00000000000000BRL0000000000000050291711042022NN0000000000000001271556                                                                                                                                                                                                                                                                                                                                                                                                                                                                                                                                                                                                                                                                                                                        
2109042022Compra a Vista                          PAG*REDEPOSTOSBOAVIST               00000000000000000000000200000000000000000000000000000000                                             0000000000000000000000049787   00000000000000   00000000000000BRL0000000000000028538911042022NN0000000000000001271556                                                                                                                                                                                                                                                                                                                                                                                                                                                                                                                                                                                                                                                                                                                        
2110042022Compra a Vista                          FARMACIA S JOAO M                   00000000000000000000000120790000000000000000000000000000                                             0000000000000000000000049787   00000000000000   00000000000000BRL0000000000000093329211042022NN0000000000000001271556                                                                                                                                                                                                                                                                                                                                                                                                                                                                                                                                                                                                                                                                                                                        
2112042022Compra a Vista                          IUGU*EBDEMFOCO                      00000000000000000000000049900000000000000000000000000000                                             0000000000000000000000049882   00000000000000   00000000000000BRL0000000000000092848913042022NN0000000000000001271555                                                                                                                                                                                                                                                                                                                                                                                                                                                                                                                                                                                                                                                                                                                        
2112042022Compra a Vista                          RAQUEL MAROSO 01846402026           00000000000000000000000018000000000000000000000000000000                                             0000000000000000000000049882   00000000000000   00000000000000BRL0000000000000021188913042022NN0000000000000001271556                                                                                                                                                                                                                                                                                                                                                                                                                                                                                                                                                                                                                                                                                                                        
2114042022Compra a Vista                          BESKOW REFEICOES                    00000000000000000000000085000000000000000000000000000000                                             0000000000000000000000049145   00000000000000   00000000000000BRL0000000000000090281818042022NN0000000000000001271556                                                                                                                                                                                                                                                                                                                                                                                                                                                                                                                                                                                                                                                                                                                        
220000000032131100000000367624000000000000000000000000000000000000000000000000000000000000000000000000000000000000                                                                                                                                                                                                                                                                                                                                                                                                                                                                                                                                                                                                                                                                                                                                                                                                                                                                                                                      
23                                                                                                                                                      
23                                                                                                                                                      
23                                                                                                                                                      
23                                                                                                                                                      
23                                                                                                                                                      
23                                                                                                                                                      
240000000000000000000000000000Parcelamento                                                                                        
250000000000000003450000000000649600000000184300000000000000000000001273560000000025471200000000002402680000001273560000000000112912  
250000000000000003450000000000680700000000242900000000000000000000000972720000000029181600000000002703520000000972720000000000173080  
250000000000000003450000000000710400000000297800000000000000000000000792320000000031692800000000002883920000000792320000000000209160  
250000000000000003450000000000738400000000350600000000000000000000000672160000000033608000000000003004080000000672160000000000233192  
250000000000000003450000000000767000000000402900000000000000000000000586450000000035187000000000003089790000000586450000000000250334  
250000000000000003450000000000795900000000454900000000000000000000000522280000000036559600000000003153960000000522280000000000263168  
250000000000000003450000000000827400000000507000000000000000000000000472460000000037796800000000003203780000000472460000000000273132  
250000000000000003450000000000857200000000559600000000000000000000000432710000000038943900000000003243530000000432710000000000281082  
250000000000000003450000000000887500000000611700000000000000000000000400250000000040025000000000003275990000000400250000000000287574  
250000000000000003450000000000918200000000664400000000000000000000000373290000000041061900000000003302950000000373290000000000292966  
250000000000000003450000000000951700000000717500000000000000000000000350550000000042066000000000003325690000000350550000000000297514  
250000000000000003450000000000978800000000763100000000000000000000000331050000000043036500000000003345190000000331050000000000301414  
250000000000000003450000000001004000000000802600000000000000000000000314160000000043982400000000003362080000000314160000000000304792  
250000000000000003450000000001024800000000837000000000000000000000000299400000000044910000000000003376840000000299400000000000307744  
250000000000000003450000000001045900000000867400000000000000000000000286380000000045820800000000003389860000000286380000000000310348  
250000000000000003450000000001062400000000894300000000000000000000000274840000000046722800000000003401400000000274840000000000312656  
250000000000000003450000000001076600000000918400000000000000000000000264530000000047615400000000003411710000000264530000000000314718  
250000000000000003450000000001090900000000940000000000000000000000000255270000000048501300000000003420970000000255270000000000316570  
250000000000000003450000000001105300000000959500000000000000000000000246920000000049384000000000003429320000000246920000000000318240  
250000000000000003450000000001115000000000977200000000000000000000000239350000000050263500000000003436890000000239350000000000319754  
250000000000000003450000000001127100000000993200000000000000000000000232460000000051141200000000003443780000000232460000000000321132  
250000000000000003450000000001136900000001007800000000000000000000000226170000000052019100000000003450070000000226170000000000322390  
250002000000000003450000000000649600000000184300000000000000000000000012735600000025471200000000002402680000001273560000000000112912  
250003000000000003450000000000680700000000242900000000000000000000000009727200000029181600000000002703520000000972720000000000173080  
250004000000000003450000000000710400000000297800000000000000000000000007923200000031692800000000002883920000000792320000000000209160  
250005000000000003450000000000738400000000350600000000000000000000000006721600000033608000000000003004080000000672160000000000233192  
250006000000000003450000000000767000000000402900000000000000000000000005864500000035187000000000003089790000000586450000000000250334  
250007000000000003450000000000795900000000454900000000000000000000000005222800000036559600000000003153960000000522280000000000263168  
250008000000000003450000000000827400000000507000000000000000000000000004724600000037796800000000003203780000000472460000000000273132  
250009000000000003450000000000857200000000559600000000000000000000000004327100000038943900000000003243530000000432710000000000281082  
250010000000000003450000000000887500000000611700000000000000000000000004002500000040025000000000003275990000000400250000000000287574  
250011000000000003450000000000918200000000664400000000000000000000000003732900000041061900000000003302950000000373290000000000292966  
250012000000000003450000000000951700000000717500000000000000000000000003505500000042066000000000003325690000000350550000000000297514  
250013000000000003450000000000978800000000763100000000000000000000000003310500000043036500000000003345190000000331050000000000301414  
250014000000000003450000000001004000000000802600000000000000000000000003141600000043982400000000003362080000000314160000000000304792  
250015000000000003450000000001024800000000837000000000000000000000000002994000000044910000000000003376840000000299400000000000307744  
250016000000000003450000000001045900000000867400000000000000000000000002863800000045820800000000003389860000000286380000000000310348  
250017000000000003450000000001062400000000894300000000000000000000000002748400000046722800000000003401400000000274840000000000312656  
250018000000000003450000000001076600000000918400000000000000000000000002645300000047615400000000003411710000000264530000000000314718  
250019000000000003450000000001090900000000940000000000000000000000000002552700000048501300000000003420970000000255270000000000316570  
250020000000000003450000000001105300000000959500000000000000000000000002469200000049384000000000003429320000000246920000000000318240  
250021000000000003450000000001115000000000977200000000000000000000000002393500000050263500000000003436890000000239350000000000319754  
250022000000000003450000000001127100000000993200000000000000000000000002324600000051141200000000003443780000000232460000000000321132  
